:020000040800F2
:100000004007002001010008FD380008693400089D
:10001000F9380008090B0008793B000800000000CF
:10002000000000000000000000000000613B00082C
:10003000250B00080000000001390008653B00089E
:100040001B0100081B0100081B0100081B01000820
:100050001B0100081B0100081B0100081B01000810
:100060001B0100081B0100081B0100081B01000800
:100070000D0B0008190B00081B0100081B010008EC
:100080001B0100081B010008FD0900081B010008F6
:100090001B0100081B0100081B0100081B010008D0
:1000A0001B0100081B0100081B0100081B010008C0
:1000B0001B0100086D3B00081B0100081B01000824
:1000C0001B0100081B0100081B0100081B010008A0
:1000D0001B0100081B0100081B0100081B01000890
:1000E000290B00081B0100081B010008DFF80CD0D9
:1000F00000F062FC00480047DD4400084007002093
:100100000648804706480047FEE7FEE7FEE7FEE7B1
:10011000FEE7FEE7FEE7FEE7FEE7FEE7693B0008D5
:10012000ED000008F0B480EA0102D40F4200B2EB07
:10013000410F02D20246084611464A0042D0C30D82
:10014000DDB2C1F3C752AD1A202D35DAC1F3160165
:1001500041F4000204B15242C5F1200602FA06F150
:100160002A411044B3EBD05F23D0C4B1012DA0EBE2
:10017000C35009DCF0BC4FF0004202EAC352DBB2CC
:1001800000F5000000F05DBB400000F1807000EB66
:10019000C350A0F1807040EAD170490009E04908DD
:1001A00041EAC071A0EBC35000F50000400800EB2D
:1001B000C350F0BC00F03CBB6142012202EB4101A4
:1001C000001BF6E7F0BC704781F00041AAE780F021
:1001D0000040A7E780EA010210B502F000434000AA
:1001E00022D04A001FD0010E01EB1261C0F356006D
:1001F000C2F3560240F4000042F40002A0FB0220C9
:1002000000047F39140400D0401C50EA124001D48D
:100210004000491EC2B20C0604EBD010401C40083E
:10022000802A02D003E0002010BD20F00100002948
:1002300000DA0020184310BD30B480EA010202F059
:10024000004530F0004221F0004013D090B1C30DC2
:10025000D40DC2F31601C0F31600E41A41F40001F4
:1002600040F400027D34914201D3641C00E0490057
:10027000002C02DA30BC002070474FF4000000234D
:10028000914201D3891A034340084FEA4101F7D153
:1002900051B1914202D14FF0004105E002D24FF03E
:1002A000010101E06FF0010103EBC450284430BCB0
:1002B00000F0BEBA2DE9FE4F804681EA0300C00F70
:1002C0000C46009021F0004123F00045B8EB0200FD
:1002D000A94105D24046214690461C460B4602469F
:1002E00023F00040104347D0270DC7F30A00C3F3A3
:1002F0000A510290401A019040286BDAC3F31300B0
:1003000040F4801B0098924620B10023D2EB030AF0
:1003100063EB0B0B01985946C0F14002504600F0C8
:1003200066FA06460D4650465946019A00F06EFAA6
:1003300010EB08006141002487EA115284EAE77358
:100340001A4340D0009A62B3019A012A4FEA075239
:1003500015DC001B61EB02014FF0004202EA07527C
:10036000CDE90042001C41F5801132462B4600F0D9
:10037000A5FA03B0BDE8F08F40462146F9E7001B1F
:1003800061EB0201001C41F5801300185B4120184D
:10039000A2F5001747EB030140EAD570B6196D418D
:1003A00011E06D084FEA360645EAC0754FEA07527C
:1003B000001B61EB0201001C41F5801149084FEA66
:1003C00030000019514132462B4603B0BDE8F04FD2
:1003D00000F065BA0098012240000023D0EB020231
:1003E00063EBE073009821464FEAE074B8EB00003D
:1003F00061EB0401E9E783F000435BE781F0004132
:1004000058E72DE9FE4F81EA030404F0004421F08F
:10041000004100944FF0000B23F0004350EA010428
:100420005ED052EA03045BD0C3F30A54C1F30A5509
:100430002C44A4F2F3340194A0FB0254C1F3130141
:1004400041F48011C3F3130343F4801301FB02440E
:1004500000FB034E840A970A44EA815447EA835713
:10046000A4FB076802958D0A05FB07854FEA932CCC
:1004700004FB0C542705029D4FEA065847EA16373D
:10048000B5EB08056EEB070C870E920E47EA811755
:1004900042EA8312A7FB0201B6EB0B0164EB0004F6
:1004A0002B0D43EA0C335E1844EB1C50DA465146E0
:1004B000E7FB0201C5F313044FEA0B3343EA14537D
:1004C0004FEA0432019C43EA0603A4F10C040294AF
:1004D000009CCDE900B400F0F1F903B0BDE8F08F65
:1004E00000200146F9E72DE9F04D81EA030404F00C
:1004F000004B21F0004514464FF0000A23F0004164
:1005000050EA050220D054EA01021DD0C5F30A5773
:100510000246C5F31303C1F31300C1F30A5640F4B6
:10052000801543F48013A7EB0608101BD64608F28B
:10053000FD3873EB050002D308F1010801E09218C1
:100540005B41B8F1000F03DA00200146BDE8F08DF1
:1005500000204FF48011064684460EE0171B73EB13
:10056000050705D3121B63EB050306434CEA010C98
:1005700049084FEA300092185B4150EA0107EDD17B
:1005800052EA030012D082EA040083EA050108431C
:1005900005D0101BAB4106D20122002306E0002249
:1005A0004FF0004302E06FF0010253101AEB060017
:1005B0004CEB085110EB0A0041EB0B01BDE8F04D8C
:1005C00000F06DB9002801DBC0F10040002901DB1B
:1005D000C1F10041814201D80120704700207047DD
:1005E000002801DBC0F10040002901DBC1F100411E
:1005F000814201D20120704700207047002801DBB2
:10060000C0F10040002901DBC1F10041814201D36A
:100610000120704700207047002801DBC0F1004036
:10062000002901DBC1F10041814201D9012070475D
:100630000020704730B5041E71F1000404DB4FF058
:100640000044404264EB0101141E73F1000405DB19
:100650001C464FF00043524263EB0403101A8B41D7
:1006600001D2012030BD002030BDC10F80EAE07012
:100670000844CA079623002100F0E3B8962300221D
:10068000114600F0DEB80EB5C10F80EAE0700844F4
:10069000CA07002140F233438DE80E000A460B469C
:1006A00000F00CF903B000BD00F0004220F0004063
:1006B000C10DC0F3160040F400007F2901DA0020CC
:1006C0007047962903DCC1F19601C84001E09639D4
:1006D0008840002AF4D04042704720F00040C10D0D
:1006E000C0F3160040F400007F2901DA00207047B3
:1006F000962903DCC1F19601C840704796398840BD
:10070000704700F0004230F000400AD0C10D01F502
:100710006071C0F3160042EA0151C208400711435C
:10072000704700200146704701F0004330B421F0CB
:10073000004150EA010206D00A0DA2F56072C1F331
:100740001301002A02DC30BC00207047440F44EA49
:10075000C104C100E01830BC00EBC25000F068B822
:1007600030B50B46014600202022012409E021FA81
:1007700002F59D4205D303FA02F5491B04FA02F57E
:100780002844151EA2F10102F1DC30BD2DE9F05F15
:100790000546002092469B468846064681464024F0
:1007A0001BE0284641464746224600F017F95346CB
:1007B0005A46C01A914110D311461846224600F0FD
:1007C00016F82D1A67EB01084F462246012000213A
:1007D00000F00DF817EB00094E41201EA4F10104B2
:1007E000DFDC484631462A464346BDE8F09F202AD2
:1007F00004DB203A00FA02F1002070479140C2F178
:10080000200320FA03F3194390407047202A06DBA7
:10081000CB17203A41FA02F043EAE07306E041FACE
:1008200002F3D040C2F120029140084319467047BC
:100830000029A8BF7047401C490008BF20F00100F4
:10084000704710B4B0FA80FC00FA0CF050EA0104D2
:1008500004BF10BC704749B1CCF1200421FA04F464
:1008600011FA0CF118BF012121430843A3EB0C013D
:10087000CB1D4FEA00614FEA102042BF002010BCA0
:10088000704700EBC35010440029A4BF10BC704750
:10089000401C490008BF20F0010010BC704710B593
:1008A000141E73F1000408DA401C41F10001921893
:1008B0005B411A4301D120F0010010BD2DE9F04D3C
:1008C00092469B4611B1B1FA81F202E0B0FA80F291
:1008D00020329046FFF78BFF04460F4640EA0A009D
:1008E00041EA0B0153465A46084313D0114653EAD6
:1008F000010019D0C8F14002504600F06FF80546DB
:100900000E46504659464246FFF771FF084305D050
:10091000012004E020463946BDE8F08D0020054363
:1009200046EAE0762C4337430A986305E40AA0EBD5
:1009300008000022FD0A44EA47540A3002D500208C
:100940000146E9E7010510196941DDE9084500198B
:100950006941BDE8F04DA2E7C1F30A52C1F31301AA
:1009600040F2FF3341F480119A4202DA002001463E
:10097000704740F233439A42A2F2334202DC5242C1
:1009800000F02CB8FFF733BF30B5041E71F100043E
:1009900004DB4FF00044404264EB0101141E73F18C
:1009A000000405DB1C464FF00043524263EB040396
:1009B000994208BF904230BD064C074D06E0E06802
:1009C00040F0010394E8070098471034AC42F6D396
:1009D000FFF790FBDC5A0008FC5A0008202A04DBD1
:1009E000203A21FA02F00021704721FA02F3D040A8
:1009F000C2F12002914008431946704780B540F289
:100A00002000C2F2000000F0FFFB40F25000C2F2F2
:100A10000000BDE8804000F0F7BB0000B0B5044620
:100A20002068816811F0010F0BD0816821F001016D
:100A3000816001F007F805462068806810F0010F1A
:100A400008D10020B0BD00BF806810F0010F04BFC6
:100A50000020B0BD00F0F6FF411B20680229F3D949
:100A6000816811F0010FEFD0A06A40F01000A06281
:100A7000E06A40F00100E0620120B0BDB0B582B094
:100A800004460020019021688A6812F0010F35D1D8
:100A9000886840F00100886040F210004DF68361E4
:100AA000C2F20000C4F21B310068A0FB0101880CF7
:100AB00002E000BF01980138019001980028F9D1A7
:100AC00000F0C0FF05462068806810F0010F17D1C4
:100AD00000F0B8FF411B20680329F5D3816811F0AD
:100AE000010FF1D1A06A40F01000A062E06A40F06E
:100AF0000100E062002084F82400012002B0B0BDB3
:100B0000002002B0B0BD0000FEE7000040F284000B
:100B1000C2F2000000F006BD40F24010C2F2000038
:100B200000F000BD704700004FF4805000F066BE3A
:100B3000EFF3108072B600BFFEE70000B0B582B0E0
:100B400004460020019094F82400012802BF0220EE
:100B500002B0B0BD012084F824002046FFF75EFFFC
:100B60002046FFF78BFF002855D1A06A41F2021101
:100B7000884340F00200A06240F21000C2F2000080
:100B80000568022001F018F8B5FBF0F0400001E024
:100B900001980138019001980028F9D120688168F6
:100BA00041F00801816000F04DFF0546206800BF5C
:100BB000816811F0080F0AD000F044FF411B206843
:100BC0000A29F5D9816811F0080FF1D016E0816883
:100BD00041F00401816000F035FF0546206800BF48
:100BE000806810F0040F0ED000F02CFF411B20682D
:100BF0000A29F5D9816811F0040FF1D001201021E4
:100C00006FF0120203E0002001216FF00302A36ADB
:100C10001A401143A162002184F8241002B0B0BD33
:100C2000F0B581B00022009290F82420012A02D170
:100C30004FF0020CDDE0012280F8242083684A682E
:100C4000F3B1D1F810C00368B2EB0C029C6B02EB5D
:100C5000820202F10F0E4FF01F0202FA0EF224EA96
:100C6000020222F4401215D80C6804FA0EFE002489
:100C7000CFF6F07404EB0C54224342EA0E0209E072
:100C8000012A35D103689A6BD1F800C06FF31502C1
:100C900042EACC324FF0000C9A639A6812F0010FCE
:100CA00006D19A6847F20104A2438C6922439A60F4
:100CB0004B7D012B12D18A69B2F5E04F04D1026855
:100CC0004FF4806E043205E000F128024FF0010C71
:100CD0004FF0200E146844EA0E0414600A7D012AC5
:100CE00015D16BB100F128024FF0010C20230BE06D
:100CF000826A4FF0010C42F0200282620368CCE766
:100D000002684FF4805304321468234313600A6866
:100D1000D1F808E0072302EB4204092A88BF1E3CF1
:100D2000092A22F0010203FA04F5036803F1100610
:100D300088BF03F10C06102A376827EA05050EFA6A
:100D400004F747EA0507376002BF9A6842F40002D9
:100D50009A604A68032A08D0022A09D0012A14BFDF
:100D600003F1200203F1140204E003F11C0201E08C
:100D700003F11802176840F6FF76B743CE68374391
:100D80001760096821F00102102A2FD142F20842AF
:100D9000C4F20102A2F10807BB4206D0816A4FF0FB
:100DA000010C41F02001816220E0136813F4000F70
:100DB0001CD11368102943F40003136016D140F2CC
:100DC00010014DF68362C2F20001C4F21B320968C1
:100DD000A1FB0212910C01EB8101490002E000BF6E
:100DE00000990139009100990029F9D1002180F87A
:100DF00024105FFA8CF001B0F0BD0000006842F2F0
:100E00000041C4F20101884200D070472DE9F04F43
:100E100081B040F220040121C2F20004204600F01B
:100E2000F1F8FFF72BFC4FF20001C4F27F51FFF7FE
:100E300003FAFFF766FC40F200090022CBF6E079E6
:100E40004B46FFF737FA46F2666A4FF06632C4F255
:100E50000A0A5346FFF7D5FAFFF766FC064604F187
:100E60003000012100F0CEF805463046FFF749FC7E
:100E700041F27B4B47F6E126C4F2AE7BC3F6947693
:100E80005A463346FFF72FFB00270022C4F24907DA
:100E90003B46FFF728FBFFF747FC804640F22C302B
:100EA000C2F20000C0F800802846FFF7E7FB4FF2CF
:100EB0000001C4F27F51FFF7BFF9FFF722FC0022C7
:100EC0004B46FFF7F7F94FF066325346FFF799FAB2
:100ED000FFF72AFCFFF715FC5A463346FFF703FBE2
:100EE00000223B46FFF7FFFAFFF71EFC044640F2E4
:100EF00030304CF63A51C2F20000C3F61371046070
:100F00004046FFF767F94CF63A5105462046C3F6CE
:100F10009371FFF75FF901462846FFF703F940F2A6
:100F2000282740F23C358146C2F20007C2F2000594
:100F300038682968FFF748F90024C4F2E004214624
:100F4000FFF748F902F090FE064638682968FFF777
:100F50003BF92146FFF73EF902F00FFE41460746F6
:100F6000FFF738F9044630464946FFF733F90146A2
:100F70002046FFF7D7F840F224354CF6CD44C2F2B4
:100F80000005C3F6CC542968224603F07DFA286098
:100F900030464146FFF71EF9064638464946FFF7F8
:100FA00019F93146FFF710F940F228352246C2F20E
:100FB0000005296803F068FA40F208322860C2F29E
:100FC000000210780138042801B0BDE8F04F88BF56
:100FD0007047DFE800F00306090D1100506803F0C8
:100FE000B7B8906803F024B9D2E9030103F06CB9F3
:100FF0009068916903F038B95068D2E9051203F09E
:10100000C3B80000022908D003290AD000680429C7
:1010100014BF3C30483000687047006840300068BA
:1010200070470068443000687047000010B50446FF
:1010300094F82400012804BF022010BD012084F888
:1010400024002046FFF71AFD18B1002184F824106F
:1010500010BDA06A43F2010142F20442C4F201024F
:1010600002F57F73884340F48050A0622168994262
:1010700003D0A06A20F4801006E0106810F4702FEE
:10108000F7D0A06A40F48010A062A06A10F4807FBC
:1010900004BF0020E062002084F824006FF0040404
:1010A0000C604C6814F4806F18BF10BD886800F4A1
:1010B000E040B0F5E04F08D1994202D04FF4021061
:1010C00005E0106810F4702F06D04FF400408A68D5
:1010D00010438860002010BD4FF40210F7E70000B5
:1010E00010B5044694F82400012804BF022010BD66
:1010F000012084F824002046FFF7C0FC18B100212D
:1011000084F8241010BDA06A43F2010142F20442A7
:10111000C4F2010202F57F73884340F48050A0625C
:101120002168994203D0A06A20F4801006E010687C
:1011300010F4702FF7D0A06A40F48010A062A06A6B
:1011400010F4807F04BF0020E062002084F82400B7
:101150006FF004040C604C6844F080044C604C68F0
:1011600014F4806F18BF10BD886800F4E040B0F53B
:10117000E04F08D1994202D04FF4021005E0106808
:1011800010F4702F06D04FF400408A681043886036
:10119000002010BD4FF40210F7E7000090F8242063
:1011A000012A02BF0221C8B2704780B5012280F82F
:1011B0002420D0F800E0DEF8082012F0010F12D150
:1011C00042F20442C4F20102D2F804C4131F9E4545
:1011D00008BF1CF0010306D11368096823F47023CB
:1011E0000B43002105E0024652F8281F41F020037E
:1011F00001211360002280F82420BDE88040C8B29D
:10120000704700007047000070B50446206806680B
:10121000456816F0020F18BF15F0200127D0A16A0B
:1012200011F0100F02BFA16A41F40071A162816840
:1012300001F46021B1F5602F04BF217B00290FD19B
:10124000416821F020014160A06A20F48070A06212
:10125000A06A10F4805F02BFA06A40F00100A062A3
:101260002046FFF7CFFF20686FF012010160710781
:1012700035D515F0800132D0A16A11F0100F02BFF0
:10128000A16A41F40051A162816801F4E041B1F525
:10129000E04F10D1416821F080014160A06A20F444
:1012A0008050A062A06A10F4807F02BFA06A40F064
:1012B0000100A0620CE0416811F4806F08D18168E0
:1012C00001F46021B1F5602F04BF217B0029E1D03A
:1012D0002046FFF793FD20686FF00C010160F007D6
:1012E00018BF15F040000AD0A06A40F48030A06218
:1012F000204600F0B3F820686FF00101016070BD76
:1013000070B50446002C04BF012070BD264656F877
:10131000280F30B90020E06284F82400204600F055
:101320009FF82068816811F0010F20D0816821F0BA
:101330000101816000F086FB05462068816811F09C
:10134000010F14D000F07EFB411B20680229F5D963
:10135000816811F0010FF1D0A06A40F01000A06286
:10136000E06A40F00100E062A06AA16A27E032680A
:10137000316812F0100F22D141F202120023914382
:1013800041F00201A162D4E90112012A08BF4FF421
:101390008073B2F5807F08BF1346E5692943257B3A
:1013A00041EA450C217D012918D16DB1A16A41F0B6
:1013B0002001A162E16A41F00101E1620EE041F029
:1013C00010010120316070BDA1694EF20005CFF619
:1013D000FF7505EB4131194341F400634168B2F5F3
:1013E000807F21F4694141EA03014FF2FD734160BE
:1013F000CFF6E173816801EA030141EA0C018160E3
:1014000018BF012A06D121690022CFF6F07202EB43
:10141000015200E00022C16A21F470011143C1624F
:1014200040F6FE618068CFF61F710840604507D125
:1014300000200122E062A16A62F30101316070BD07
:10144000A06A20F0120040F01000A06254F82C0FA7
:1014500040F0010101202646316070BD7047000058
:1014600080B586B0002142F60003CDE90411CDE934
:10147000021141F21801C4F20103026840F60000B3
:10148000C4F20201C4F201009A4228D042F20043A1
:10149000C4F201039A4243D10A6842F400720A601E
:1014A0000A6802F400720192019A0A6842F004028A
:1014B0000A60096801F0040101910199012102917A
:1014C0000321039102A900F0A5F9122001210022B5
:1014D00000F030FB122000F01DFB06B080BD0A6852
:1014E00042F480620A600A6802F480620192019A02
:1014F0000A6842F004020A60096801F004010191DF
:101500000199022102910321039102A900F082F9BD
:1015100012200121002200F00DFB122000F0FAFA47
:1015200006B080BDB0B5D0E90FE140F2040CC4F2C2
:10153000020CDEF800300268146814F0040F1EBFBD
:1015400004258D4015EA03051ED0116811F0200F07
:1015500002BF116821F0040111602F21C4F20201C1
:101560008A4239DD3021C4F202018A425CD0442132
:10157000C4F202018A425AD05821C4F202018A42BE
:101580005AD14FF480215FE0A50731D502258D4067
:101590001D402DD0116811F0200F06D1116821F0E7
:1015A0000A011160012180F821102F21C4F20201EB
:1015B0008A4250DD3021C4F202018A4257D04421D0
:1015C000C4F202018A4255D05821C4F202018A4273
:1015D00055D14FF400315AE00821C4F202018A4289
:1015E00028D01C21C4F202018A4225D140212BE0DF
:1015F000250756D508258D402B4008BFB0BD136880
:1016000023F00E031360012202FA01F1CEF8041058
:101610000021826380F8212080F82010016B0029CE
:101620003FD0BDE8B04008474FF480610CE04FF474
:10163000804109E0042107E00CF168034FF080616C
:101640009A4208BF4FF48001CCF80010C16A41B340
:10165000BDE8B04008470821C4F202018A420CD01C
:101660001C21C4F202018A4209D120210FE04FF46B
:1016700000710CE04FF4005109E0022107E00CF189
:1016800068034FF000719A4208BF4FF40011CCF884
:101690000010002180F82010816A11B1BDE8B0402F
:1016A0000847B0BD01460120002908BF7047B0B50A
:1016B000D1F800C04FF6F8734CF6CD42CBF6FD736F
:1016C000CCF6CC426344A3FB02234FF6FC72C3F674
:1016D000FF7202EA93020023C4F20203C1E90F324F
:1016E000022243F6F07381F82120DCF8002022EA80
:1016F000030ED1E90132D1E9034543EA0E031A434F
:101700004B6922432A431A438B691A43CB691A4314
:10171000CCF8002000228A6381F8210081F8202083
:101720000020BDE8B0407047B0B590F820C0BCF1D3
:10173000010F34D04FF0010E80F820E090F821C066
:10174000BCF1010F28D14FF0020C80F821C04FF0FE
:10175000000CC0F838C0D0F800C0DCF8004024F01D
:101760000104CCF80040D0E90F450EFA05F565609C
:10177000CCF804304368102B0B4608BF1346CCF856
:10178000083008BF0A46CCF80C20C16ADCF800001B
:1017900041B140F00E000DE0002180F82010022041
:1017A000C0B2B0BD20F00400CCF80000DCF80000AE
:1017B00040F00A00CCF80000DCF8000040F0010026
:1017C000CCF800000020C0B2B0BD000070B50546E6
:1017D0006E1C00F037F9044636B140F20400C2F244
:1017E00000000078054401E04FF0FF3500F02AF9D1
:1017F000001BA842FAD370BD7047000040F21441AC
:10180000C4F201010A6802421CBF0860FFF7F4BF7E
:10181000704700002DE9F04F83B0D1F800E0BEF131
:10182000000F00F0058141F2004204234FF6FF7AD9
:1018300040F2004801244FF000094FF0000BC4F2C1
:101840000102C1F2100AC4F20108904200F1140230
:1018500008BF032301920093002300BF04FA09FC90
:101860001EEA0C0F00F0DB804F68574512DC122F88
:1018700055D80F24DFE807F0350A4448545454542F
:101880005454545454545454544B4F00D1F80CB045
:1018900046E000BF4FF6FF72C1F22102974210DC12
:1018A00000220F24C1F2110297421EBF0022C1F292
:1018B0001202974215D00022C1F22102974210D0A5
:1018C0002EE000220F24C1F2220297421EBF002206
:1018D000C1F23102974204D00022C1F23202974293
:1018E0001ED18A684AB1012A019A4FF0080B08BF3D
:1018F00000F11002C2F800C012E04FF0040B0FE03C
:10190000CA6802F1080B0BE04FF0000B08E0CA6850
:1019100002F1040B04E0CA6802F10C0B00E00F2492
:10192000B9F1080F02464FF6F8754E4628BF04324B
:10193000C3F6FF75176828BF2E44B60004FA06F5F3
:101940000BFA06F6AF4337431760CA79D20601D4C3
:10195000012464E041F218020F244FEA9906C4F210
:10196000020215462A6842F001022A602A6803F042
:101970000C0502F00102029204FA05F2029FA8F59A
:101980007E7757F8264024EA020240F60004C4F2AB
:101990000104A0420ED040F60044C4F20104A0426B
:1019A0000AD041F20004C4F20104A042009C08BF26
:1019B000022402E0002400E0012404FA05F50124D9
:1019C0002A4347F8262040F20C474D68D8F80820F3
:1019D000C4F2010715F4801F0CBF22EA0C0242EA90
:1019E0000C02C8F80820AA023A6854BF22EA0C0286
:1019F00042EA0C023A60AA03D8F8042054BF22EA53
:101A00000C0242EA0C02C8F80420EA03D8F80020CD
:101A100054BF22EA0C0242EA0C02C8F80020D1F8B6
:101A200000E009F1010904333EFA09F27FF416AF30
:101A300003B0BDE8F08F0000002A08BF090401616F
:101A40007047000040F20400C2F200008068704756
:101A500040F20400C2F20000017882681144816003
:101A60007047000080B542F20000C4F20200016835
:101A700041F010010160032000F08EF80F2000F00B
:101A800005F800F025F8002080BD000070B540F298
:101A9000040604464FF47A71C2F200063078B1FBB6
:101AA000F0F040F21001C2F200010968B1FBF0F061
:101AB00000F0A8FE01250F2C08D838B94FF0FF30F0
:101AC00021460022002500F035F87460284670BDDC
:101AD00082B041F218000222C4F20200016841F013
:101AE00001010160016801F0010101910199416862
:101AF00041F080514160406800F0805000900098B3
:101B00000420C4F20100016862F31A61016002B0AE
:101B1000704700000028B8BF704700F01F01012285
:101B2000400902FA01F14EF20012CEF2000242F830
:101B30002010704710B500F00F034EF60C5E00F158
:101B4000604CB0F1FF3FA3F10403CEF2000E7344EA
:101B500003F10C04C8BF0CF56444DEF80000C0F3C8
:101B6000022000F1040CC31E80F00700BCF1070F37
:101B70004FF0010C38BF0023042828BF04200CFAC2
:101B800000F0013808400CFA03F10F319840114081
:101B900008430001207010BD4EF60C514FF6FF03B4
:101BA000CEF200010A681A4060F30A2242F0806017
:101BB00040F0FD700860704710B541F20404012840
:101BC000C4F202040BD0022824D0102805D12168C9
:101BD00054F8040C10F0807F27D1002010BDE0697C
:101BE00040F202310140B1F5817F04BF4FF4004063
:101BF00010BD00F44070B0F5407F23D0B0F5007FF9
:101C00001CBF002010BD206A49F64041800701EA50
:101C1000E07010BD00F0BAF921680222C1F38131F1
:101C200002EB4101B0FBF1F010BDC1F3834016A2FD
:101C300011F4803F105C0DD140F60011C0F23D015F
:101C4000484313E054F8040C4FF22441800301EAA6
:101C5000E07010BD216810A2C1F34041515C41F217
:101C60000022C0F27A02B2FBF1F14843216811F47C
:101C7000800F18BF10BD4AF6AB214000CAF6AA215A
:101C8000A0FB0101480810BD02030405060708096E
:101C90000A0B0C0D0E0F1010010200002DE9F0418F
:101CA00082B0044641F21C062078C4F20206C00746
:101CB00061D0306847F20007C4F2000710F0805F7F
:101CC0000BD130684FF0010840F080503060306830
:101CD00000F080500190019801E04FF00008386852
:101CE00010F4807F11D1386840F480703860FFF7BD
:101CF000A9FE0546386810F4807F06D1FFF7A2FEE2
:101D0000401B6428F6D903204EE0706810F4407040
:101D100023D0616801F4407188421ED0706840F29F
:101D200040410122C4F242210A6000220A6020F4EC
:101D3000407110F0010F71600FD0FFF783FE054670
:101D400041F28837706810F0020F06D1FFF77AFE73
:101D5000411B0320B942F5D926E070686168B8F1EB
:101D6000010F20F4407040EA0100706002BF30684B
:101D700020F080503060206810F0020F07D056F835
:101D8000181CA26821F44041114346F8181CC006F3
:101D900001D4002008E056F8180CE16820F4800017
:101DA000084346F8180C0020C0B202B0BDE8F0812C
:101DB0002DE9F04104460D46002C00F0AA8041F2C6
:101DC0000408C4F20208D8F8FC0F00F00700A8428B
:101DD0000DD2D8F8FC0F20F007002843C8F8FC0FFC
:101DE000D8F8FC0F00F00700A84240F0928020686D
:101DF00010F0020F17D0410742BFD8F8001041F48D
:101E0000E061C8F80010010742BFD8F8001041F4A3
:101E10006051C8F80010D8F80010A26821F0F00155
:101E20001143C8F80010C0072FD06068012805D101
:101E300058F8041C11F4003F6BD008E058F8041C5B
:101E4000022802D1890164D501E0890761D5D8F85B
:101E5000001021F003010843C8F80000FFF7F2FD6D
:101E6000064641F2883700BFD8F80000616800F0EC
:101E70000C00B0EB810F08D0FFF7E4FD801BB842E7
:101E8000F2D90320C0B2BDE8F081D8F8FC0F00F011
:101E90000700A8420CD9D8F8FC0F20F0070028430F
:101EA000C8F8FC0FD8F8FC0F00F00700A84230D1AA
:101EB000206810F0040F07D0D8F80010E26821F471
:101EC000E0611143C8F80010000708D5D8F80000F9
:101ED000216920F4605040EAC100C8F80000D8F839
:101EE000001041F20020C0F27A0001F00C02082A32
:101EF0001CD145F27E23C1F3834211F4803FC0F62A
:101F000000039A5C09D140F60010C0F23D00504336
:101F10000CE00120C0B2BDE8F081D8F800105043B9
:101F20000FA2C1F34041515CB0FBF1F0D8F80010B2
:101F300045F26622C0F60002C1F30311515CC840AD
:101F400040F21001C2F20001086040F20800C2F243
:101F500000000068FFF79AFD0020C0B2BDE8F081E4
:101F60000102000040F2100041F2040145F2762225
:101F7000C2F20000C4F20201C0F600020068096863
:101F8000C1F30221515CC8407047000040F21000CC
:101F900041F2040145F27622C2F20000C4F20201CD
:101FA000C0F6000200680968C1F3C221515CC84054
:101FB000704700002DE9F04782B0044674B32078E2
:101FC00041F2000A41F22007C4F2020AC4F20207F9
:101FD000C00763D057F81C0C00F00C0004281FD079
:101FE00057F81C0C00F00C00082804D157F81C0C02
:101FF00010F4803F14D16068D8B1B0F5803F08D0AC
:10200000DAF80010B0F5A02F2ED141F48020CAF8E4
:102010000000DAF8000040F480302DE00120B2E149
:10202000DAF8000010F4003F38D06068B0BB01203F
:10203000A9E1DAF8000020F48030CAF80000DAF8EC
:10204000000020F48020CAF80000FFF7FBFC0546E2
:10205000DAF8000010F4003F20D0FFF7F3FC411B3A
:1020600003206429F4D98EE121F48030CAF80000FD
:10207000DAF8000020F48020CAF80000FFF7E2FC44
:10208000054600BFDAF8000010F4003F06D1FFF764
:10209000D9FC401B6428F5D9032074E1207840F274
:1020A0000008C4F24228800738D557F81C0C10F0FD
:1020B0000C0F21D057F81C0C00F00C00082804BFAE
:1020C00057F81C0C10F4803F16D02069002800F04F
:1020D000A9800120C8F80000FFF7B4FC054600BF46
:1020E000DAF8000010F0020F0FD1FFF7ABFC401B35
:1020F0000228F5D9032046E1DAF8000010F0020FBB
:102100001CBF2069012840F08B80DAF8000061696B
:1021100020F0F80040EAC100CAF80000207800076B
:1021200038D5A06988B10120C8F88004FFF78AFC7F
:10213000054600BF786810F0020F18D1FFF782FC47
:10214000401B0228F6D903201DE10020C8F88004B6
:10215000FFF778FC054600BF786810F0020F19D031
:10216000FFF770FC401B0228F6D903200BE140F278
:10217000100044F6D351C2F20000C1F262010068BF
:10218000A0FB0101480A019000BF0198411E0028F0
:102190000191F9D12078400740F1908057F8040C64
:1021A00010F0805F0ED157F8040C4FF0010940F099
:1021B000805047F8040C57F8040C00F08050009051
:1021C000009801E04FF0000946F20006CFF6FE76D7
:1021D0005AF8060010F4807F14D15AF8060040F433
:1021E00080704AF80600FFF72DFC05465AF80600F5
:1021F00010F4807F06D1FFF725FC401B6428F5D939
:102200000320C0E0E06800B3012805D03968052844
:1022100033D141F004003860386840F0010032E00A
:102220000120B0E00020C8F80000FFF70BFC0546D5
:10223000DAF8000010F0020F3FF470AFFFF702FC75
:10224000411B03200229F3D99DE0386820F00100EA
:102250003860386820F004003860FFF7F3FB05466B
:1022600041F28836386810F0020F1ED0FFF7EAFB03
:10227000411B0320B142F5D985E021F0010038600F
:10228000386820F004003860FFF7DCFB054641F2B7
:10229000883600BF386810F0020F06D1FFF7D2FB76
:1022A000401BB042F6D903206DE0B9F1010F02BF27
:1022B00057F8040C20F0805047F8040CE669002E13
:1022C00060D057F81C0C00F00C00082803D1012E38
:1022D00022D1012057E00020C8F86000FFF7B2FBD0
:1022E0000546022E0CD100BFDAF8000010F0007F86
:1022F00020D0FFF7A7FB411B03200229F4D942E0BD
:10230000DAF8000010F0007F3CD0FFF79BFB411B88
:1023100003200229F4D936E057F81C0C216A00F496
:1023200080328A4233D1616A00F47010884229D029
:10233000012028E0206AB0F5803F07D157F81C1C27
:10234000A26821F40031114347F81C1C57F81C1CEB
:1023500021F474110843616A084347F81C0C0120FA
:10236000C8F86000FFF76EFB044600BFDAF8000013
:1023700010F0007F06D1FFF765FB011B0320022947
:10238000F4D900E00020C0B202B0BDE8F08701201F
:10239000F9E70000B0B5054612A0696D02F0EAFA4F
:1023A000296840F60004C4F2010404F5205081427B
:1023B00018BFB0BD204610210122FFF73DFB20468B
:1023C00010210022FFF738FB40F2800140F2C010DC
:1023D0000323C2F20001C2F200000A4600F0E6F850
:1023E000B0BD00BF48414C5F5350495F4572726FAA
:1023F0007243616C6C6261636B3A25640A00000091
:1024000070B50446002C02BF0126304670BD606ADC
:1024100020B10020206104F1140005E06068B0F5EF
:10242000827F03D004F11C000021016000264FF0E0
:10243000000CA66294F8510038B9204684F8506028
:1024400000F03CF8A06A00F4005C022184F851100E
:1024500021680A6822F040020A60D4E90123D4E925
:10246000030502F4827203F4044300F400601A438B
:10247000104305F002021043626902F001021043AA
:10248000A26902F400731843E36903F038031843A8
:10249000236A03F08003184340EA0C00086004201C
:1024A00000EA12404860C86920F40060C861012059
:1024B000666584F85100304670BD00002DE9F0419A
:1024C00086B00027044640F60005CDE90477CDE943
:1024D0000277C4F20105216805F52050814202D03F
:1024E00006B0BDE8F08141F2180002AEC4F202006D
:1024F000016841F480510160016801F4805101914B
:102500000199016841F0040101603146006800F062
:10251000040001900198A020029002200390032063
:1025200005902846FFF776F940203146CDE90207AD
:1025300028460497FFF76EF940F280051C264FF0FD
:102540008008C2F20005C4F20206284640F8046F73
:10255000C0E90177C0E90387C0E90577C761FFF7E4
:10256000A1F8002818BFFEF7E3FA281D1021002269
:10257000E064AC6240F2401506F11400C2F20005BE
:1025800085E807012846C5E90422C5E90622FFF7C8
:1025900089F8002818BFFEF7CBFAA5646C6206B074
:1025A000BDE8F081704700007047000070B5044638
:1025B00094F85150012D0AD06068B0F5827F11D196
:1025C000042D4FF0020004BFA568002D7DD101202D
:1025D00000297AD0002A18BF002B76D094F850003A
:1025E000012802D10220C0B270BD0120002643F6AE
:1025F000351C43F6E51584F85000C0F6000CC0F613
:10260000000594F8510004281CBF052084F85100EF
:1026100066652163A386E386A263A387E387C4E993
:10262000106643F62D1394F8511043F62510C0F6AA
:102630000003C0F60000042908BF0346E06C04292B
:1026400043F6051108BF6546C0F60001C0E90A530C
:10265000C0E90C162168E38F0C31FFF765F830B143
:10266000606D40F01000606584F8506016E02268EC
:10267000506840F0010050600C32A06CC0E90A665E
:10268000C0E90C66216BE38EFFF74EF848B1606D30
:1026900040F010006065002084F850000120C0B2B6
:1026A00070BD2168086810F0400F02BF086840F054
:1026B00040000860002084F850004A6842F0200280
:1026C0004A604A6842F002024A60C0B270BD00002F
:1026D000F0B581B0006840F60004C4F2010404F5CE
:1026E0002051884201D001B0F0BD204610210122C6
:1026F000FFF7A2F940F28000C2F2000005784678A8
:102700008778280440EA06203843800901F0FEFA61
:1027100007F03F01814229D1A80140EA9600FDF768
:10272000B2FF42F6115242F2FB13C5F24442C4F228
:102730001903FDF766FE00230022C3F61073FDF7B0
:1027400060FEFDF7F1FF054640F22820C2F20000CE
:10275000056040F21C20C2F200000178012918D166
:1027600040F21820C2F2000001681AE02046102151
:102770000022FFF761F940F2800140F2C01003230C
:10278000C2F20001C2F200000A46FFF70FFF01B0DB
:10279000F0BD0121017040F218202946C2F200006C
:1027A00005602846FDF710FD40F6DB71C4F2C90153
:1027B00001F056FB40F21821C2F200010D6040F218
:1027C0003435C2F200052968FDF7ACFC4CF6E43163
:1027D000C4F2961101F044FB28602046102100222B
:1027E000FFF72AF940F2800140F2C0100323C2F241
:1027F0000001C2F200000A46FFF7D8FE01B0F0BDAA
:1028000070470000411E0020B0EB116F1CBF01207B
:1028100070474EF21002F023CEF2000251604EF6E5
:102820002351CEF200010B700721906011607047B8
:10283000704700007047000090F83C20012A02BF5A
:102840000221C8B27047B0B501F10805D1E900CE48
:102850003CCDC96923F47C5322F470521A432EF400
:10286000F0431A432CF4E0431A4324F4C0431A43C0
:102870002A4322F48042114302685164002180F807
:102880003C10BDE8B040C8B27047000090F83C3042
:102890000222012B34D080B5012380F83C3080F82F
:1028A0003D2002685368D2F808C023F0700E0B6810
:1028B00043EA0E03536040F2FF73C4F200039A42EE
:1028C000BDE8804005DCB2F1804F0ED040F20043FD
:1028D00007E042F60043C4F201039A4205D040F6F5
:1028E0000003C4F200039A4204D149682CF080032B
:1028F000194391600121002280F83D1080F83C20AE
:10290000D0B2704710B50446002C04BF012010BDA2
:1029100094F83D0028B9002084F83C00204600F0DF
:1029200065F8022040F2FF7342F6004C84F83D0047
:10293000C4F20003C4F2010C20680268984205DC6E
:10294000B0F1804F0AD040F2004103E0604505D06D
:1029500040F60001C4F20001884203D122F0700168
:10296000A2680A43984205DCB0F1804F0AD040F2D9
:10297000004103E0604505D040F60001C4F20001CB
:10298000884203D122F4407122690A43A16922F0EE
:102990008002604541EA02010160E168C16261684C
:1029A000816204BF6169CCF8301001214161026984
:1029B00012F0010F1EBF026922F001020261002025
:1029C00084F8461084F83E1084F83F1084F84010D4
:1029D00084F8411084F8421084F8431084F84410BD
:1029E00084F8451084F83D1010BD000080B582B019
:1029F000016840F2004241F21800C4F20002C4F241
:102A00000200914210D042F60042C4F2010291420B
:102A100008D1016841F400610160006800F40060C1
:102A20000190019802B080BD4168002241F002018E
:102A300041600121406800F00200009000981D20D4
:102A4000FFF778F81D2002B0BDE88040FFF762B8BC
:102A500090F83D1001291CBF01207047022180F829
:102A60003D100068C16841F00101C16040F2FF7192
:102A7000C4F20001884205DCB0F1804F0ED040F274
:102A8000004107E042F60041C4F20101884205D04E
:102A900040F60001C4F20001884206D1816801F0CD
:102AA0000701062904BF00207047016841F00101B9
:102AB000016000207047000090F83C300222012B9A
:102AC00000F0C58080B5012380F83C3080F83D20BF
:102AD0004FF67772D0F800C0DCF8083023EA020223
:102AE000CCF808200B684F2B28DC1F2B43DD202B54
:102AF00018BF302B43D0402B40F0AB80D1F804E01E
:102B0000C968DCF82030DCF8202022F00102CCF883
:102B10002020DCF8182022F0F00242EA0111CCF863
:102B2000181023F00A0141EA0E01CCF82010DCF85D
:102B3000081021F0770141F047017DE06F2B26DD81
:102B4000B3F5005F47D0B3F5805F77D0702B40F0CE
:102B50008080D1E90123C9681A4342EA0121DCF8E7
:102B6000082022F47F421143CCF80810DCF808104A
:102B700041F0770160E0002B18BF102B69D1DCF821
:102B8000081021F07701194341F0070154E0502B60
:102B900033D0602B5DD1D1F804E0C968DCF8203077
:102BA000DCF8202022F01002CCF82020DCF81820DD
:102BB00022F4704242EA0131CCF8181023F0A0014F
:102BC00041EA0E11CCF82010DCF8081021F0770152
:102BD00041F0670130E0D1E90123C9681A4342EAB4
:102BE0000121DCF8082022F47F421143CCF80810C0
:102BF000DCF8081041F480411EE0D1F804E0C96817
:102C0000DCF82030DCF8202022F00102CCF8202073
:102C1000DCF8182022F0F00242EA0111CCF818107A
:102C200023F00A0141EA0E01CCF82010DCF808106C
:102C300021F0770141F05701CCF808100022012162
:102C400080F83D10002180F83C10BDE88040D0B2F3
:102C500070470122F3E7000070470000B0B504465A
:102C60002068C168026901EA0205A90714D56FF05E
:102C70000201016101212177806910F0030F03D067
:102C80002046FFF7E9FF05E0204600F075F82046F2
:102C900000F0E4F900202077680715D520686FF070
:102CA0000401016102212177806910F4407F03D083
:102CB0002046FFF7D1FF05E0204600F05DF82046F2
:102CC00000F0CCF900202077280715D520686FF098
:102CD0000801016104212177C06910F0030F03D0BE
:102CE0002046FFF7B9FF05E0204600F045F82046F2
:102CF00000F0B4F900202077E80615D520686FF0C1
:102D00001001016108212177C06910F4407F03D0D0
:102D10002046FFF7A1FF05E0204600F02DF82046F1
:102D200000F09CF900202077E80706D020686FF0BB
:102D300001010161204600F0F1F9280606D520685E
:102D40006FF0800101612046FFF772FD680606D52D
:102D500020686FF040010161204600F025FAA806C6
:102D600058BFB0BD20686FF0200101612046BDE86A
:102D7000B040FFF75FBD00007047000090F83C30A6
:102D8000012B02BF0223D8B270474FEAB2020123DF
:102D9000032A80F83C3000F2E5802DE9F04142F64C
:102DA000004CC4F2010CDFE802F0023870AA02689D
:102DB000146A136A624523F0010324F002041362CB
:102DC0001346D2F8048053F8185F8F680E6844EAFF
:102DD000070425F0730747EA060E0DD1D1F80CC0A1
:102DE000D1E9055628F4407724F00C043D432CF03B
:102DF000040745EA06083C43C2F80480C2F818E01C
:102E00004F6857631462976947F00807976197699D
:102E100027F00407976109699EE00268146A136A43
:102E2000624523F0100324F0200413621346D2F805
:102E300004E053F8185F8F680E6825F4E64544EA0D
:102E4000071445EA062511D1D1F80CC0D1E9058750
:102E50002EF4406646EA880646EA870E6FF04F0673
:102E600006EA0C1724F0C00647EA0604C2F804E09C
:102E700095614F6897631462976947F4006797619B
:102E8000976927F48067976164E00268146A136A9F
:102E9000624523F4807324F4007413621346D2F85D
:102EA00004E053F81C5F8F680E6825F0730544EA50
:102EB000072445EA060512D1D1F80CC0D1E90587EF
:102EC0002EF4405646EA081646EA071E4FEA0C273B
:102ED00040F2FF46B74324F4406647EA0604C2F8CE
:102EE00004E0D5614F68D7631462D76947F00807DB
:102EF000D761D76927F00407D76109692CE0026818
:102F0000176A136A624523F4805327F4005713624B
:102F10001346D2F8048053F81C4F8D680E6824F4D1
:102F2000E64447EA053E44EA062402BF4F6928F416
:102F3000804646EA8718C2F80480D4614F68176457
:102F4000C2F820E0D76947F40067D761D76927F452
:102F50008067D761096909021A6811431960002363
:102F6000BDE8F041002180F83C10D8B27047000065
:102F700010B50446002C04BF012010BD94F83D009C
:102F800028B9002084F83C00204600F065F80220B3
:102F900040F2FF7342F6004C84F83D00C4F2000397
:102FA000C4F2010C20680268984205DCB0F1804F41
:102FB0000AD040F2004103E0604505D040F6000130
:102FC000C4F20001884203D122F07001A2680A43D2
:102FD000984205DCB0F1804F0AD040F2004103E096
:102FE000604505D040F60001C4F20001884203D1DB
:102FF00022F4407122690A43A16922F080026045EF
:1030000041EA02010160E168C1626168816204BF56
:103010006169CCF8301001214161026912F0010FA1
:103020001EBF026922F001020261002084F84610EE
:1030300084F83E1084F83F1084F8401084F8411062
:1030400084F8421084F8431084F8441084F8451042
:1030500084F83D1010BD000070470000704700006C
:1030600039B10322082908BF0222042908BF01221E
:1030700000E00022024492F83E20012A1CBF0120F9
:103080007047022241B1082909D0042914BF80F8F1
:10309000412080F83F2004E080F83E2001E080F8E5
:1030A0004020006801F01F01012202FA01F1026ACA
:1030B0008A430262026A1143016242F64441C4F249
:1030C0000101A1F14402904202BF0A6842F40042A9
:1030D0000A6040F2FF71C4F20001884205DCB0F1E1
:1030E000804F0ED040F2004107E042F60041C4F2AA
:1030F0000101884205D040F60001C4F20001884277
:1031000006D1816801F00701062904BF002070473D
:10311000016841F00101016000207047006840F241
:103120000041C4F20001884218BF704710B540F258
:10313000242140F22824C2F20001C2F200040A78DD
:103140002068012A05D140F22021C2F2000109685D
:1031500007E001220A7040F22021C2F2000108605B
:103160000146FDF731F840F6DB71C4F2C90100F009
:1031700077FE216840F22022C2F20002116048F27C
:103180000001C4F26841FDF725F840F2383445F6F5
:103190002942C2F20004C3F68F52216801F074F98B
:1031A0002060BDE8104070477047000010B504462D
:1031B000002C04BF012010BD94F8410028B9002064
:1031C00084F84000204600F061F8242084F8410093
:1031D0002068C16821F40051C1600169E26821F4EE
:1031E0004051114341F20C620161D4F808C0D4E9A6
:1031F00004E3C16891434EEA0C021A431143C160D3
:103200004169A26921F440711143416143F6000113
:10321000C4F20101884202D0FEF7A4FE01E0FEF7ED
:10322000B5FE192148F21F5C4843D4E90012C5F2EB
:10323000EB1C9200B0FBF2F0A0FB0C3252096FF0D5
:10324000630302FB0300322303EB0010A0FB0C031B
:10325000F02000EA531000EB0210C3F343121043B6
:103260008860086920F490400861486920F02A00CD
:103270004861C86840F40050C860002020216064A4
:1032800084F8411084F84210606310BD70B586B0B8
:10329000002640F60004CDE90466CDE90266C4F2DA
:1032A00001040068A4F54441884201D006B070BD15
:1032B00041F2180002ADC4F20200416841F400314D
:1032C0004160416801F4003101910199016841F0C8
:1032D000040101602946006800F004000190019893
:1032E0000420029002200390032005902046FEF760
:1032F00091FA08202946CDE9020620460496FEF7F9
:1033000089FA06B070BD00002DE9F04381B0044693
:10331000994616460F4694F8410020281AD1002FEE
:103320004FF0010018BF002E00F0988000252120EA
:10333000656484F84100FEF785FBA684E684804638
:10334000A068B0F5805F07D12669002E0CBF3D460E
:103350003E4602E0022081E03E46E28C20680168A1
:103360008AB319F1010217D0B9F1000F4CD100BF97
:1033700009066DD516B116F8011B04E035F8021BDD
:1033800000266FF35F214160E18C0139E184E28C1A
:103390000168002AECD116E0090603D4016811F097
:1033A000800FFBD016B116F8011B04E035F8021BA4
:1033B00000266FF35F214160E18C0139E184E28CEA
:1033C0000168002AE8D1490618D4B9F1000F3BD0B2
:1033D00019F1010106D100BF016811F0400FFBD0C7
:1033E0000CE000BFFEF72EFBA0EB0800484539D8E3
:1033F0002068C168006810F0400FF3D00020202141
:1034000084F841102AE000BF09060BD4FEF71AFB2E
:10341000A0EB080048451DD82068C168016811F07C
:10342000800FF3D016B116F8011B04E035F8021B2B
:1034300000266FF35F214160E18C0139E184E28C69
:103440000168002AE0D1BEE7FEF7FCFA0320D6E7C8
:10345000FEF7F8FA202084F841000320C0B201B042
:10346000BDE8F0830320CAE7FEE7000080B588B01E
:1034700040F2200042F2004200214FF46023C2F2E9
:103480000000C4F20102CDE90611CDE90411CDE935
:103490000211CDE900110260012281600273017501
:1034A000C36141600261FDF72BFF002818BFFDF7E3
:1034B0003FFB4FF4A02007A9079040F22000C2F282
:1034C0000000FDF76BFE002818BFFDF731FB002060
:1034D000012100900491CDE9011106908DF81500AD
:1034E0008DF81400039040F220006946C2F20000FB
:1034F000FDF796FB002818BFFDF71AFB08B080BD4A
:1035000070B588B040F2200542F600010024012683
:10351000C2F20005C4F201010794CDE90544CDE9EA
:103520000344CDE90144284640F8301F4FF46021A0
:10353000846006730475C16144600661FDF7E0FEB6
:10354000002818BFFDF7F4FA05F1300001A9CDE914
:103550000166059603968DF819408DF8184004947D
:10356000FDF75EFB002818BFFDF7E2FA08B070BD5A
:1035700080B582B041F214000022C4F2020001685A
:1035800041F0010101600021006800F0010001909C
:1035900001980C20FEF7CEFA0C20FEF7BBFA0D20A6
:1035A00000210022FEF7C6FA0D2002B0BDE88040DF
:1035B000FEF7B0BA2DE9F04784B041F2180040F6AA
:1035C0000044002210264FF0000AC4F20200C4F2A8
:1035D00001040168A4F5806541F0200101600168E3
:1035E00001F0200100910099016841F0040101609F
:1035F000016801F0040100910099016841F008019F
:1036000001601021006800F0080000900098284632
:10361000FEF712FA20464FF4004100224FF4004812
:10362000FEF70AFA00966E464FF001090227284677
:103630003146CDE9019A0397FEF7ECF84FF480503C
:10364000314600900020C1F21100CDE9010A204668
:10365000FEF7E0F8204631468DE800070397FEF7B5
:10366000D9F8282003210022FEF764FA2820FEF76B
:1036700051FA04B0BDE8F08710B540F2C01043F233
:1036800000014FF4827200234FF0010C4FF4007ED2
:103690003024C2F20000C4F2010180E80E000A21C9
:1036A000C0E90333C0E905CEC461C0E90833C0E90D
:1036B0000A31FEF7A5FE00281CBFBDE81040FDF74B
:1036C00037BA10BD70B59CB040F2302042F60045CC
:1036D000002160224FF4E16304268024C2F200003E
:1036E000C4F20105CDE91511CDE913111191CDE910
:1036F0000F11CDE90D11CDE90B11CDE90911CDE97E
:103700000711CDE90511CDE90311CDE90111C0E99A
:103710000051C0E90223C0E904168461FFF7F2F802
:10372000002818BFFDF704FA4FF4805013A9139036
:1037300040F23020C2F20000FFF7BEF9002818BFA7
:10374000FDF7F6F940F23020C2F20000FFF710FC5E
:10375000002818BFFDF7ECF92020002410A91090D4
:1037600040F230201194C2F20000FFF78FF80028D9
:1037700018BFFDF7DDF960200F94CDE90D44CDE9C8
:103780000B4409A90022CDE9090440F23020C2F21D
:103790000000FFF7F3FA002818BFFDF7C9F940F25F
:1037A000302009A90422C2F20000FFF7E7FA00283E
:1037B00018BFFDF7BDF940F2302009A90822C2F276
:1037C0000000FFF7DBFA002818BFFDF7B1F940F25F
:1037D000302400264FF4807001A9C2F20004CDE924
:1037E0000166CDE90306CDE9056608962046FFF798
:1037F00023F8002818BFFDF79BF9CDE91A66CDE93B
:1038000018662068A84201D01CB070BD41F21800B3
:10381000C4F20200016841F00401016018A90068C7
:1038200000F00400179017984FF4E0601890022001
:1038300019901B90A5F51050FDF7ECFF1CB070BD62
:1038400080B586B040F2782040F200420021472344
:1038500040F2334CC2F20000C4F20002CDE9041180
:10386000CDE90211CDE90011C0E90023C0E9021C35
:1038700001618161FFF746F8002818BFFDF758F98C
:103880004FF4805002A9029040F27820C2F200006A
:10389000FFF712F9002818BFFDF74AF90020694622
:1038A000CDE9000040F27820C2F20000FEF7EEFF02
:1038B000002818BFFDF73CF906B080BD80B540F286
:1038C000C02044F200414FF4E13200234FF00C0CD1
:1038D000C2F20000C4F2000180E80E00C0E9033328
:1038E000C0E905C3C361FFF761FC00281CBFBDE848
:1038F0008040FDF71DB980BDFEE70000FEE7000037
:1039000070470000406A01684A6822F003024A607A
:10391000416D41F010014165012180F85110FEF721
:1039200039BD0000406AFEF73FBE0000406AFEF766
:1039300067BF0000B0B582B005466C6AFEF782F83A
:103940002968096811F0200F45D121684A6822F0E2
:1039500020024A60D4E90132BAB14D68B3F5827FE2
:1039600025F001054D6019D1B2F5004F18BFB2F531
:10397000806F13D10B68B2F5806F23F040030B60AA
:103980000CD10090204601210BE04A68B3F5827FFC
:103990000CBF22F0030222F001024A600090204690
:1039A00080210022642300F05FF800281FBF606DB3
:1039B00040F020006065202018BF60650020E0878F
:1039C000012084F85100606D28B1204602B0BDE8A6
:1039D000B040FEF7DFBC204602B0BDE8B040FEF7C5
:1039E000E1BD000070B582B00646746AFEF72AF8A1
:1039F00005463068006810F0200F2FD120680122A2
:103A00006423416821F02001416020460221009595
:103A100000F02AF838B9204680210022642300955E
:103A200000F022F838B1606D40F020006065606DF4
:103A300040F0200060652068416821F0030141608A
:103A40000020E086E087012084F85100606D28B1F5
:103A5000204602B0BDE87040FEF79CBC204602B094
:103A6000BDE87040FEF734BE2DE9F04381B0089CFC
:103A7000994615460E468046FDF7E4FF201A00EBF6
:103A80000904FDF7DFFF074640F2100019F10101BC
:103A9000C2F200000068C0F3CB3004FB00F00090DD
:103AA000D8F800000AD080683040801BB0FA80F05F
:103AB0004009A8420CD100204DE000BF8168314090
:103AC000891BB1FA81F14909A942F7D1002042E0EE
:103AD000FDF7B8FFC01BA04212D20098009901392F
:103AE0000028009108BF0446D8F8000080683040E4
:103AF000801BB0FA80F04009A842E9D100202AE0FA
:103B0000D8F80000416821F0E0014160D8F80410C5
:103B1000B1F5827F0BD1D8F80810B1F5004F18BF6E
:103B2000B1F5806F03D1016821F040010160D8F840
:103B30002810B1F5005F07D1016821F40051016040
:103B4000016841F400510160012088F85100002013
:103B500088F850000320C0B201B0BDE8F083000037
:103B600070470000FDF774BF7047000040F27820F6
:103B7000C2F20000FFF772B8FEE7F0B581B04FF671
:103B80008311C3F62261FCF725FB4FF07A51FCF755
:103B9000C9FA0446FCF788FD0546204600210027A7
:103BA000FCF71EFD002818BF013D2846FCF75DFD0F
:103BB00001462046FCF708FB4FF08841FCF70AFB62
:103BC0000446FCF771FD054620464FF04441FCF7E2
:103BD000A9FA0646B7EB552F14BF002526462846FE
:103BE000FCF74CFD01463046FCF7EEFA45F2902119
:103BF000C0F6000101EB8502064651F825405568E4
:103C00004FF07E503146FCF7DFFA2146FCF7E2FA2E
:103C1000044630462946FCF7DDFA01462046FCF70B
:103C200081FA01B0F0BDF0B581B00D46D0E9066172
:103C30000446076A3046FCF775FA3946FCF772FA13
:103C4000206038463946FCF76DFA01463046FCF7ED
:103C500069FA80F000406060A7601DB10020C4E9EF
:103C60000300606101B0F0BDF0B581B04FF6831183
:103C7000C3F62261FCF7AEFA0446FCF715FD0546D3
:103C8000204600210027FCF7ABFC002818BF013DAF
:103C90002846FCF7EAFC01462046FCF795FA4FF06F
:103CA0008841FCF797FA0446FCF7FEFC05462046DF
:103CB0004FF04441FCF736FA0646B7EB552F14BFD8
:103CC000002526462846FCF7D9FC01463046FCF77D
:103CD0007BFA45F29021C0F6000101EB8502064611
:103CE00051F8254055684FF07E503146FCF76CFA8C
:103CF0002146FCF76FFA044630462946FCF76AFA7B
:103D000001462046FCF70EFA01B0F0BD8103062201
:103D100010F4803F4FF0030C02EAE17218BF82F00A
:103D2000030210F4004F8CEA420308BF5300C0F3B3
:103D3000803103F03F028CEA4203B1EB521F08BF0F
:103D4000530003F03F01C0F340338CEA4102B3EB70
:103D5000511F08BF4A00C0F3003302F03F018CEA54
:103D60004102B3EB511F08BF4A00C0F3C02302F069
:103D70003F018CEA4102B3EB511F08BF4A00C0F378
:103D8000802302F03F018CEA4102B3EB511F08BFD0
:103D90004A00C0F3402302F03F018CEA4102B3EB3A
:103DA000511F08BF4A00C0F3002302F03F018CEA14
:103DB0004102B3EB511F08BF4A00C0F3C01302F029
:103DC0003F018CEA4102B3EB511F08BF4A00C0F328
:103DD000801302F03F018CEA4102B3EB511F08BF90
:103DE0004A00C0F3401302F03F018CEA4102B3EBFA
:103DF000511F08BF4A00C0F3001302F03F018CEAD4
:103E00004102B3EB511F08BF4A00C0F3C00302F0E8
:103E10003F018CEA4102B3EB511F08BF4A00C0F3D7
:103E2000800302F03F018CEA4102B3EB511F08BF4F
:103E30004A00C0F3400300F0010002F03F018CEAA9
:103E40004102B3EB511F08BF4A0002F03F018CEA68
:103E50004102B0EB511F08BF4A0002F03F0070471B
:103E6000B0B50D4604464FF07C512846FCF7B2F938
:103E70002146FCF7C3FB20B920462946FCF7A4F9EC
:103E8000B0BD28464FF03F41FCF7A4F92146FCF7AE
:103E900099FB20B920462946FCF744F90446204600
:103EA000B0BD00002DE9F04F83B00C464FF07E51BD
:103EB000914606464FF07E55FCF792FB40F2000813
:103EC000002808BF2E46CBF6807830464146FCF7E6
:103ED000A3FB002820464FF07E5108BF4646FCF762
:103EE0007FFB0028414608BF2C462046FCF794FB88
:103EF00083464846FFF7B8FE82464846FFF73DFE38
:103F0000074630465146FCF765F9BBF1000F054600
:103F1000394608BF44462046FCF75CF9014628466E
:103F2000FCF700F900218046FCF776FB0546304699
:103F30003946FCF74FF9064620465146FCF74AF948
:103F400001463046FCF740F9002D4FF000010646CF
:103F50004FF0010418BF0125AF00FCF75DFB0028FE
:103F600028F0004018BF44EA8507FCF7CAFB044666
:103F700026F000400D46FCF7C4FB44F6AA424BF283
:103F80007A63CEF65802C3F6FB73FCF73AFA224680
:103F90002B46FCF74FFB00285BA118BF012047EA26
:103FA000400051F820703846FCF75FFB40F6922144
:103FB000C3F68671FCF70EF90446FFF755FE31464D
:103FC000FCF708F905462046FFF7D7FD01464046B5
:103FD000FCF700F901462846FCF7F6F840F6922176
:103FE00082462046CBF68671FCF79CF80446FFF724
:103FF000C4FD01464046FCF7EDF805462046FFF7B4
:1040000033FE01463046FCF7E5F801462846FCF74A
:10401000DBF805464FF07E505146FCF7D5F82946AF
:10402000FCF7D2F804464AF6AB2045F69429C2F6CE
:10403000AA20C0F6000987FB000101EBD17000EB5C
:104040004000A7EB400000EB400859F82800FCF7BF
:104050000CFB01462846FCF7BDF8064607EB470077
:1040600009EB800151E9030B51F8041C0291FCF7A4
:10407000FCFA01465046FCF7ADF83146FCF752F821
:10408000064620464FF07C51FCF7A4F8314607461F
:10409000FCF748F8019009EB8801D1E90104FCF72D
:1040A000E4FA01462846FCF795F806465846FCF720
:1040B000DCFA01465046FCF78DF83146FCF732F841
:1040C00001463846FCF72EF806462046FCF7CDFAA6
:1040D00001462846FCF77EF804460298FCF7C5FA2C
:1040E00001465046FCF776F82146FCF71BF80146DE
:1040F0003846FCF717F802460198314603B0BDE890
:10410000F04F00F099BB00BF040000000600000063
:104110000500000005000000030000000100000091
:10412000020000000200000010B582B0044640F218
:10413000C0200DF1070101224FF0FF33C2F2000051
:104140008DF80740FFF7E0F8204602B010BD0000F0
:1041500010B500F0EDFA40F23C31044640F2282060
:10416000C2F20000C2F2000100680968FCF72CF8F6
:104170000021C4F2E001FCF72DF8024600202146A0
:10418000BDE81040FFF78EBE2DE9F04190460D4688
:1041900000F0CEFA0646294626F000473846FCF7DE
:1041A0001FFA044630460021FCF736FA002C06467A
:1041B00008BF2F463846FCF7A4FA00250B46002E10
:1041C00002464FF00000CBF6F07529461CBF0021D7
:1041D000C3F6F071FCF715F9FCF7A6FA00F096FBB0
:1041E0000446414624F000463046FCF7F9F9002821
:1041F00020464FF0000108BF4646FCF70DFA044682
:104200003046FCF77EFA002C02460B464FF00000C9
:104210001CBF0025C3F6F0752946FCF7F2F8FCF741
:1042200083FA01460020BDE8F04100F04DB80000DF
:1042300010B500F06BFB40F23C31044640F2282000
:10424000C2F20000C2F2000100680968FBF7BCFF7F
:104250000021C4F2E001FBF7BDFF02460020214629
:10426000BDE81040FFF71EBEF0B581B00C4600F06F
:104270004DFB0546214625F000463046FCF7B0F9D7
:10428000074628460021FCF7C7F9002F054608BF5E
:1042900026463046FCF735FA0B460021002D024633
:1042A0004FF00000CBF6F0711CBF0021C3F6F07197
:1042B000FCF7A7F8FCF738FA0146002001B0BDE88A
:1042C000F04000F001B800002DE9F04F83B040F25B
:1042D000D009064640F2243002914FF07C51C2F2E0
:1042E0000009C2F2000009F1480A9AE83004D9E94D
:1042F000157B0068D9F85C80C9F85870FBF76AFF35
:1043000001463046FBF760FF064620463146FBF784
:1043100061FF044628463946FBF75CFF014620460C
:10432000FBF700FF044650465946FBF753FF014692
:104330002046FBF7F7FE01464046FBF7F3FE074633
:104340004FF07E514FF07E58C9F85C70FCF748F989
:10435000002400284FF07E5518BF3D46CBF68074F0
:1043600028462146FCF758F90028384608BF25465C
:104370002946FBF729FF0746D9F8640043F2333199
:10438000C3F63371FBF726FF3946FBF723FF0146DF
:104390003046FBF7C7FE40F29017C9F854004FF0C3
:1043A0007C51C2F20007D7E9009AB8680090D7E9BB
:1043B00003B47869019040F22830C7F810B0C2F217
:1043C00000000068FBF706FF01460298FBF7FCFEC1
:1043D000014648468946FBF7FDFE064650465946CB
:1043E000FBF7F8FE01463046FBF79CFE06460098B8
:1043F0002146FBF7EFFE01463046FBF793FE0146F0
:104400000198FBF78FFE06464FF07E517E61FCF768
:10441000E7F80024002818BFB046CBF68074404669
:104420002146FCF7F9F80028304608BFA04641466F
:10443000FBF7CAFE0646F86943F23331C3F633711F
:10444000FBF7C8FE3146FBF7C5FE01464846FBF7C1
:1044500069FE40F23C31F86040F22820C2F20000D0
:10446000C2F2000100680968FBF7AEFE0021C4F249
:10447000E001FBF7AFFE02462846414603B0BDE827
:10448000F04FFFF70FBD00002DE9F04116460F4633
:104490003146FBF79FFEFCF734F9804630460D4667
:1044A000FCF72FF90B46002102460020C3F6F071FD
:1044B000FBF7A1FF064638460C46FCF722F90246F8
:1044C0000B4630462146FBF79CFF42462B46FBF746
:1044D000F1FEFCF729F9BDE8F08100002DE9F04379
:1044E0009BB0FDF7BFFA002401204FF48031022574
:1044F000CDE91644CDE914441094CDE90E44CDE93C
:104500000C44CDE90A44CDE908441190CDE91214D8
:1045100015904FF4E010CDE918511A9011A8FDF74D
:1045200049FD20B1EFF3108072B600BFFEE70F2007
:104530000221CDE90C054FF480600E94CDE90F0403
:104540000CA8FDF735FC20B1EFF3108072B600BF68
:10455000FEE7022008904FF400400A9008A8FDF7FB
:104560009DFB20B1EFF3108072B600BFFEE7FFF7AE
:1045700021F8FEF7FDFFFFF77FF8FFF79FF9FFF740
:10458000A1F8FFF75DF9FEF771FFFEF7B9FF41F201
:104590006F214DF20A7349F69A1000260022C3F6E5
:1045A0008321C3F6A343C3F69970C4F2E002CDE9B8
:1045B000001602A949C105A949C100200021C4F281
:1045C000600000F007F940F6004810210022C4F214
:1045D0000108A8F58060FDF72FFA40F2800140F253
:1045E000C01003230327C2F20001C2F200000A46F2
:1045F000FDF7DCFF0A20FDF7E9F840F23024002146
:10460000C2F200042046FEF72BFD20460421FEF7EF
:1046100027FD20460821FEF723FD40F27820C2F254
:104620000000FEF715FA40F22004C2F20004204612
:10463000FCF784FA40F25005C2F200052846FCF768
:104640007DFA2046FCF74CFD2846FCF7EFFC40F2D3
:10465000282440F22C210022C2F20004C2F2000100
:10466000206808604FF07C50002100F0E5F84FF41E
:10467000C870FDF7ABF8206840F23C310022C2F26E
:10468000000108600020002100F0D6F86420FDF74A
:104690009DF840F208344CF6CD40C2F20004C3F657
:1046A000CC60C4E903604FF47A702770FDF78EF890
:1046B00040F6DB7040F23439002542F6115642F2E2
:1046C000FB17C3F6C970C2F20009C4F23435C5F253
:1046D0004446C4F2090760600120207012A400BFA4
:1046E000D9F800002946FBF775FDFCF70AF83246B9
:1046F0003B46FBF7F8FE024620460B4600F03AF92F
:104700006420FDF763F840464FF400410122FDF7B5
:1047100093F96420FDF75AF840464FF40041002217
:10472000FDF78AF9DCE700BF252E33660A0000009A
:104730002DE9F04740F23431C2F200010968FBF77D
:1047400043FD4CF6E4310446C4F21611FBF73AFF80
:1047500040B94CF6E4312046CCF29611FBF7E2FC6E
:1047600004460FE04CF6E4312046CCF21611FBF77C
:1047700045FF38B94CF6E4312046C4F29611FBF7F8
:10478000D1FC044640F2D0072046C2F2000797E869
:104790004202D7E9035AD7F81480C7E90345FBF76B
:1047A00019FD044630462946FBF714FD0146204614
:1047B000FBF7B8FC044648465146FBF70BFD0146A3
:1047C0002046FBF7AFFC01464046FBF7ABFC7861A7
:1047D000BDE8F087B0B540F2D00440F29015C2F2C7
:1047E0000004C2F2000504F1180C8CE80700E36332
:1047F0000021049820640598606406982066079854
:1048000060660898A0660998A8610A98E8610B9804
:1048100028622046FFF707FA04F124000021FFF781
:1048200002FA04F148000021FFF7FDF928460021B3
:10483000BDE8B040FFF7F7B92DE9F047904689464B
:10484000FBF75FFF4CF6CD444CF6CC4A06460F46CC
:10485000CCF6CC44C3F6EC7A22465346FBF7EAFE8C
:10486000002804BF2646574630463946FBF75CFF12
:104870000646EFF3108072B640F23020C2F200001C
:104880000568E86AFBF7FAFE01463046FBF7A2FC32
:10489000FBF723FF68634846FBF733FF2246534686
:1048A00006460F46FBF7C6FE002804BF26465746BD
:1048B00030463946FBF738FF0646E86AFBF7DEFE6E
:1048C00001463046FBF786FCFBF707FFA86340462E
:1048D000FBF717FF2246534606460F46FBF7AAFE94
:1048E000002804BF2646574630463946FBF71CFFD2
:1048F0000446E86AFBF7C2FE01462046FBF76AFC65
:10490000FBF7EBFEE86362B6BDE8F0872DE9F04700
:1049100040F2D00540F23831C2F20005C2F2000187
:1049200005F1240999E8C002D5E90C4A0968D5F8CF
:1049300038806C63FBF748FC014630462963FBF77F
:1049400049FC064638462146FBF744FC0146304602
:10495000FBF7E8FB044648465146FBF73BFC0146A3
:104960002046FBF7DFFB01464046FBF7DBFBA86375
:10497000BDE8F0870FB4054B10B503A9044A0298AF
:1049800000F0DAF810BC5DF814FB000029410008C3
:104990000000002002E008C8121F08C1002AFAD156
:1049A00070477047002001E001C1121F002AFBD1AF
:1049B000704700002DE9FF5F82B00021DDE904307F
:1049C000020DDDF840B0034318D044F61050A2F2B7
:1049D000FF3242431514119801281FD0A5EB0B009C
:1049E000401C5FEA000A4FF000064E4FDFF8389196
:1049F000B046504615D5CAF1000413E011980124C1
:104A00004AA3012801D16FEA0B010298119AC0E96B
:104A10000031C0E9024206B0BDE8F09FCBF10000D2
:104A2000DFE704460021404A491842EB0450CDE933
:104A3000001012E0E00707D032463B4640464946A8
:104A4000FBF7DFFC8046894632463B461046194656
:104A5000FBF7D7FC06460F466410002CEAD1DDE9CF
:104A60000401DDE90023BAF1000F06DAFBF7C9FC07
:104A700042464B46FBF7C5FC05E0FBF734FD4246DA
:104A80004B46FBF730FD04460E460022284BFBF751
:104A90007BFF03D84FF0FF30014607E00022254B93
:104AA00020463146FBF706FCFBF756FF102409E0D1
:104AB000002C0ADB0A220023FBF768FE039B30323E
:104AC0001A55641E50EA0102F2D1641C039AC4F123
:104AD00011031444119A012A03D0012208430DD175
:104AE0000AE0084304D000204FF0110B119072E748
:104AF000A3EB0B056D1E0DE05B4504DD4FF00002DE
:104B000005F1010504E003DA4FF00002A5F101050B
:104B1000002AECD002981199C0E90231C0E90045A1
:104B200079E70000000014400000F03F3000000072
:104B30000000F0430000E03F2DE9FF4F95B09B4699
:104B40008946064600250FE2252877D1002427460E
:104B5000F84A0121059400E0044316F8013F203B88
:104B600001FA03F01042F7D130782A2811D06FF003
:104B70002F033078A0F13002092A16D8059A44F0A4
:104B8000020402EB820203EB42021044761C059001
:104B9000EFE759F8042B0592002A03DA504244F457
:104BA0000054059044F00204761C30782E2816D16B
:104BB00016F8010F44F004042A280DD06FF02F02DC
:104BC0003078A0F13003092B09D807EB870302EBFB
:104BD0004303C718761CF3E759F8047B761C30783A
:104BE0006C280FD006DC4C2817D068280DD06A2816
:104BF00014D104E0742810D07A280FD10DE044F4C9
:104C000000140AE044F4801401E044F44014727883
:104C1000824202D104F58014761C761C3078662816
:104C20000BD013DC582877D009DC002875D0452834
:104C3000F6D04628F4D047281AD19DE118E0632821
:104C400035D0642879D0652812D195E1702873D0C9
:104C500008DC6728F1D069286FD06E280DD06F2846
:104C600006D1B5E073282CD0752875D0782874D07B
:104C70005A46179990476D1C75E1C4F302500228FB
:104C800009D003280DD0D9F8001004280DD00D60EC
:104C900009F1040967E1D9F80010EA17C1E90052E7
:104CA000F6E7D9F800100D80F2E70D70F0E719F87B
:104CB000041B8DF8001000208DF80100EA46012049
:104CC00003E059F804AB4FF0FF3061074FF00001EB
:104CD00002D40DE008F101018846B9420FDA80459F
:104CE000F8DB1AF808100029F4D108E008F10101F6
:104CF00088468142FADB1AF808100029F6D1059897
:104D00005B46A0EB080721463846179A00F094FA54
:104D1000284400EB080507E04DE029E10DE01AF812
:104D2000010B5A4617999047B8F10108F7D25B4634
:104D300021463846179A13E142E00A220092C4F352
:104D400002524FF0000A022A08D059F804CB032A75
:104D50004FEAEC710AD00DE029E02AE009F10701E1
:104D600021F00702F2E802C1914609E00FFA8CFC3B
:104D70004FEAEC71042A03D14FFA8CFC4FEAEC7134
:104D8000002907DA0A460021DCF1000C61EB020180
:104D90002D2202E0220504D52B228DF804200122C9
:104DA00003E0E20701D02022F7E7904659E00A210C
:104DB00002E010220DE010214FF0000A00910BE0FC
:104DC00010224FF0000A44F004040827009203E088
:104DD00008224FF0000A0092C4F30252022A05D0C2
:104DE00059F804CB0021032A08D009E009F1070192
:104DF00021F00702F2E802C1914605E01FFA8CFC9F
:104E0000042A01D10CF0FF0C4FF00008220728D52E
:104E1000702806D0009B83F0100353EA0A0305D0E4
:104E20000EE040228DF80420012208E05CEA010235
:104E300006D030228DF804208DF80500022290461D
:104E4000009B83F0080353EA0A030AD15CEA0102DB
:104E500001D1620705D530228DF804204FF00108FA
:104E60007F1E582804D034A003900EA802900DE0B5
:104E700036A0F9E753466046009AFBF787FC844664
:104E80000398825C0298401E029002705CEA010066
:104E9000F0D1029806A9081A00F1200A600702D58D
:104EA00024F4803400E00127574502DDA7EB0A0017
:104EB00000E0002000EB0A01009005984144401AF0
:104EC0000590E00306D45B462146179A059800F04A
:104ED000B3F90544002706E001A85A46C05D1799BA
:104EE00090476D1C7F1C4745F6DBE0030CD55B4605
:104EF0002146179A059800F09FF9054404E03020F8
:104F00005A46179990476D1C0099481E0090002939
:104F1000F5DC08E0029802995A460078491C029193
:104F2000179990476D1CBAF10001AAF1010AF1DC52
:104F300065E100000928010030313233343536375D
:104F400038396162636465660000000030313233D5
:104F50003435363738394142434445460000000075
:104F600000F058F90544761C307800287FF4ECAD49
:104F700019B02846BDE8F08F620700D4062709F172
:104F8000070222F0070CFCE80223E14603F0004888
:104F90005FEA080C02D00FF2702C0DE05FEA045CAF
:104FA00002D50FF2682C07E05FEAC47C02D00FF252
:104FB000602C01E0AFF2700C4FF0FF3823F000439B
:104FC000CDF850C065280CD006DC452809D046280D
:104FD0001DD047283DD13DE0662818D067287ED1F6
:104FE00038E00021112F01DB112000E0781CCDE911
:104FF000000106A90EA8FFF7DDFCDDE90F010E9AFE
:1050000003910021009207F1010A04914DE04FF055
:1050100000400097CDE9011006A90EA8FFF7CAFCD1
:10502000DDE90F0203920E9B11990022DDF80CA01E
:105030000093049211B9791C00EB010AB7EB0A0046
:1050400004D4C0F1FF3007F1010A0490AAEB070075
:10505000019044E0012F00DA01270021112F01DD2A
:10506000112000E03846CDE9000106A90EA8FFF79F
:10507000A1FCDDE90F010E9A039100210491009239
:10508000BA4621070CD40399514500DA8A46BAF191
:10509000010F05DD009AAAF10101515C302908D009
:1050A000B84202DA10F1040F06DA0121CDE901104D
:1050B00015E0AAF10101E9E7002805DC04990144A3
:1050C0000491AAEB000102E0411C514500DD8A4633
:1050D0000499401A401C01904FF0004002902007B4
:1050E00004D40198504501DBCDF8048000208DF8F0
:1050F0004F0002980DF14F07B0F1004F25D02B2043
:105100000E9002984FF0020800280CDA40420290FC
:105110002D200E9007E00A210298FBF721FB303189
:10512000029007F8011DB8F10001A8F10108F2DCB6
:1051300002980028EFD1791E0E980870307800F0A0
:10514000200040F0450007F8020D12A8C01B00F136
:1051500007081498007800B1012000EB0A010198BB
:1051600001EBE07105984144401A401E0590E003B0
:1051700006D45B462146179A059800F05DF8054471
:105180001498007818B15A46179990476D1CE0039F
:1051900024D55B462146179A059800F04DF8054442
:1051A0001CE00498002807DBDDE90301884203DDE9
:1051B0000098405C179901E0179930205A469047B3
:1051C000049805F10105401C04900198401E0190CF
:1051D00004D12E205A46179990476D1CBAF1000150
:1051E000AAF1010ADDDC05E017F8010B5A46179910
:1051F00090476D1CB8F10001A8F10108F4DC5B4692
:105200002146179A0598ABE62D0000002B00000000
:10521000200000002DE9F041044600251E461746F7
:10522000880404D405E039462020B0476D1C641E74
:10523000F9D52846BDE8F0812DE9F0410446002566
:105240001E469046C80301D5302700E02027880479
:1052500004D505E041463846B0476D1C641EF9D5BB
:105260002846BDE8F08100000000000000000102B7
:1052700003040607080900000000010203040203FA
:105280000405060708090A0B0C0D0E0F101000008C
:1052900000000000920E493CB10AC93C2BC3163DE8
:1052A0002EFB483D752B7B3D04A9963D80B6AF3D56
:1052B00036BDC83D2FBCE13D73B2FA3D87CF093EF4
:1052C0008340163EB5AB223EA2102F3ECF6E3B3E32
:1052D000C2C5473E0115543E135C603E7F9A6C3E4A
:1052E000CCCF783EC07D823E938E883E229A8E3E01
:1052F00032A0943E86A09A3EE59AA03E128FA63E2A
:10530000D47CAC3EEF63B23E2A44B83E491DBE3E5B
:1053100015EFC33E53B9C93ECA7BCF3E4136D53E99
:1053200080E8DA3E4F92E03E7533E63EBBCBEB3E83
:10533000EA5AF13ECBE0F63E275DFC3EE4E7003F53
:105340003D9C033F824B063F9BF5083F6B9A0B3F0A
:10535000DA390E3FCDD3103F2A68133FD9F6153FF7
:10536000C07F183FC6021B3FD17F1D3FCBF61F3FBA
:105370009967223F25D2243F5636273F1594293F6F
:105380004AEB2B3FDE3B2E3FBB85303FC9C8323F47
:10539000F304353F233A373F4268393F3B8F3B3F69
:1053A000F9AE3D3F67C73F3F70D8413F01E2433F01
:1053B00003E4453F65DE473F12D1493FF8BB4B3F11
:1053C000029F4D3F207A4F3F3D4D513F4918533F7B
:1053D00031DB543FE595563F5348583F6AF2593FF9
:1053E0001A945B3F532D5D3F05BE5E3F2146603FF3
:1053F00097C5613F5A3C633F59AA643F880F663F97
:10540000D86B673F3CBF683FA7096A3F0C4B6B3FB7
:105410005E836C3F93B26D3F9ED86E3F73F56F3FD6
:105420000809713F5213723F4714733FDD0B743FFD
:105430000BFA743FC6DE753F07BA763FC58B773FE0
:10544000F853783F9812793F9DC7793F02737A3FAE
:10545000BE147B3FCDAC7B3F283B7C3FC9BF7C3F2C
:10546000AC3A7D3FCCAB7D3F23137E3FB0707E3F97
:105470006DC47E3F580E7F3F6D4E7F3FAB847F3FB4
:105480000FB17F3F97D37F3F43EC7F3F11FB7F3FBF
:105490000000803F11FB7F3F43EC7F3F97D37F3F6E
:1054A0000FB17F3FAB847F3F6D4E7F3F580E7F3FF4
:1054B0006DC47E3FB0707E3F23137E3FCCAB7D3FFB
:1054C000AC3A7D3FC9BF7C3F283B7C3FCDAC7B3FA6
:1054D000BE147B3F02737A3F9DC7793F9812793F94
:1054E000F853783FC58B773F07BA763FC6DE753FE6
:1054F0000BFA743FDD0B743F4714733F5213723F36
:105500000809713F73F56F3F9ED86E3F93B26D3FB0
:105510005E836C3F0C4B6B3FA7096A3F3CBF683F03
:10552000D86B673F880F663F59AA643F5A3C633F78
:1055300097C5613F2146603F05BE5E3F532D5D3FED
:105540001A945B3F6AF2593F5348583FE595563FDE
:1055500031DB543F4918533F3D4D513F207A4F3F77
:10556000029F4D3FF8BB4B3F12D1493F65DE473F9D
:1055700003E4453F01E2433F70D8413F67C73F3FE7
:10558000F9AE3D3F3B8F3B3F4268393F233A373FBF
:10559000F304353FC9C8323FBB85303FDE3B2E3F69
:1055A0004AEB2B3F1594293F5636273F25D2243FFF
:1055B0009967223FCBF61F3FD17F1D3FC6021B3F9D
:1055C000C07F183FD9F6153F2A68133FCDD3103F4F
:1055D000DA390E3F6B9A0B3F9BF5083F824B063F33
:1055E0003D9C033FE4E7003F275DFC3ECBE0F63EF9
:1055F000EA5AF13EBBCBEB3E7533E63E4F92E03EBE
:1056000080E8DA3E4136D53ECA7BCF3E53B9C93E2B
:1056100015EFC33E491DBE3E2A44B83EEF63B23E7D
:10562000D47CAC3E128FA63EE59AA03E86A09A3E60
:1056300032A0943E229A8E3E938E883EC07D823E5A
:10564000CCCF783E7F9A6C3E135C603E0115543E91
:10565000C2C5473ECF6E3B3EA2102F3EB5AB223EA9
:105660008340163E87CF093E73B2FA3D2FBCE13D21
:1056700036BDC83D80B6AF3D04A9963D752B7B3D38
:105680002EFB483D2BC3163DB10AC93C920E493C46
:1056900000000000920E49BCB10AC9BC2BC316BD64
:1056A0002EFB48BD752B7BBD04A996BD80B6AFBD52
:1056B00036BDC8BD2FBCE1BD73B2FABD87CF09BEF0
:1056C000834016BEB5AB22BEA2102FBECF6E3BBE2E
:1056D000C2C547BE011554BE135C60BE7F9A6CBE46
:1056E000CCCF78BEC07D82BE938E88BE229A8EBEFD
:1056F00032A094BE86A09ABEE59AA0BE128FA6BE26
:10570000D47CACBEEF63B2BE2A44B8BE491DBEBE57
:1057100015EFC3BE53B9C9BECA7BCFBE4136D5BE95
:1057200080E8DABE4F92E0BE7533E6BEBBCBEBBE7F
:10573000EA5AF1BECBE0F6BE275DFCBEE4E700BF4F
:105740003D9C03BF824B06BF9BF508BF6B9A0BBF06
:10575000DA390EBFCDD310BF2A6813BFD9F615BFF3
:10576000C07F18BFC6021BBFD17F1DBFCBF61FBFB6
:10577000996722BF25D224BF563627BF159429BF6B
:105780004AEB2BBFDE3B2EBFBB8530BFC9C832BF43
:10579000F30435BF233A37BF426839BF3B8F3BBF65
:1057A000F9AE3DBF67C73FBF70D841BF01E243BFFD
:1057B00003E445BF65DE47BF12D149BFF8BB4BBF0D
:1057C000029F4DBF207A4FBF3D4D51BF491853BF77
:1057D00031DB54BFE59556BF534858BF6AF259BFF5
:1057E0001A945BBF532D5DBF05BE5EBF214660BFEF
:1057F00097C561BF5A3C63BF59AA64BF880F66BF93
:10580000D86B67BF3CBF68BFA7096ABF0C4B6BBFB3
:105810005E836CBF93B26DBF9ED86EBF73F56FBFD2
:10582000080971BF521372BF471473BFDD0B74BFF9
:105830000BFA74BFC6DE75BF07BA76BFC58B77BFDC
:10584000F85378BF981279BF9DC779BF02737ABFAA
:10585000BE147BBFCDAC7BBF283B7CBFC9BF7CBF28
:10586000AC3A7DBFCCAB7DBF23137EBFB0707EBF93
:105870006DC47EBF580E7FBF6D4E7FBFAB847FBFB0
:105880000FB17FBF97D37FBF43EC7FBF11FB7FBFBB
:10589000000080BF11FB7FBF43EC7FBF97D37FBF6A
:1058A0000FB17FBFAB847FBF6D4E7FBF580E7FBFF0
:1058B0006DC47EBFB0707EBF23137EBFCCAB7DBFF7
:1058C000AC3A7DBFC9BF7CBF283B7CBFCDAC7BBFA2
:1058D000BE147BBF02737ABF9DC779BF981279BF90
:1058E000F85378BFC58B77BF07BA76BFC6DE75BFE2
:1058F0000BFA74BFDD0B74BF471473BF521372BF32
:10590000080971BF73F56FBF9ED86EBF93B26DBFAC
:105910005E836CBF0C4B6BBFA7096ABF3CBF68BFFF
:10592000D86B67BF880F66BF59AA64BF5A3C63BF74
:1059300097C561BF214660BF05BE5EBF532D5DBFE9
:105940001A945BBF6AF259BF534858BFE59556BFDA
:1059500031DB54BF491853BF3D4D51BF207A4FBF73
:10596000029F4DBFF8BB4BBF12D149BF65DE47BF99
:1059700003E445BF01E243BF70D841BF67C73FBFE3
:10598000F9AE3DBF3B8F3BBF426839BF233A37BFBB
:10599000F30435BFC9C832BFBB8530BFDE3B2EBF65
:1059A0004AEB2BBF159429BF563627BF25D224BFFB
:1059B000996722BFCBF61FBFD17F1DBFC6021BBF99
:1059C000C07F18BFD9F615BF2A6813BFCDD310BF4B
:1059D000DA390EBF6B9A0BBF9BF508BF824B06BF2F
:1059E0003D9C03BFE4E700BF275DFCBECBE0F6BEF5
:1059F000EA5AF1BEBBCBEBBE7533E6BE4F92E0BEBA
:105A000080E8DABE4136D5BECA7BCFBE53B9C9BE27
:105A100015EFC3BE491DBEBE2A44B8BEEF63B2BE79
:105A2000D47CACBE128FA6BEE59AA0BE86A09ABE5C
:105A300032A094BE229A8EBE938E88BEC07D82BE56
:105A4000CCCF78BE7F9A6CBE135C60BE011554BE8D
:105A5000C2C547BECF6E3BBEA2102FBEB5AB22BEA5
:105A6000834016BE87CF09BE73B2FABD2FBCE1BD1D
:105A700036BDC8BD80B6AFBD04A996BD752B7BBD34
:105A80002EFB48BD2BC316BDB10AC9BC920E49BC42
:105A90000000008001000000000000000000000085
:105AA00001000000010000000000000000000000F4
:105AB00001000000000000000000000001000000E4
:105AC00001000000000000000000000001000000D4
:105AD000010000000000000001000000005B000861
